{
  "contractName": "Crowdfunding",
  "abi": [
    {
      "inputs": [
        {
          "internalType": "uint256",
          "name": "_goal",
          "type": "uint256"
        },
        {
          "internalType": "uint256",
          "name": "_durationInDays",
          "type": "uint256"
        }
      ],
      "stateMutability": "nonpayable",
      "type": "constructor"
    },
    {
      "anonymous": false,
      "inputs": [
        {
          "indexed": true,
          "internalType": "address",
          "name": "donor",
          "type": "address"
        },
        {
          "indexed": false,
          "internalType": "uint256",
          "name": "amount",
          "type": "uint256"
        }
      ],
      "name": "DonationReceived",
      "type": "event"
    },
    {
      "anonymous": false,
      "inputs": [
        {
          "indexed": true,
          "internalType": "address",
          "name": "owner",
          "type": "address"
        },
        {
          "indexed": false,
          "internalType": "uint256",
          "name": "amount",
          "type": "uint256"
        }
      ],
      "name": "FundsWithdrawn",
      "type": "event"
    },
    {
      "anonymous": false,
      "inputs": [
        {
          "indexed": true,
          "internalType": "address",
          "name": "donor",
          "type": "address"
        },
        {
          "indexed": false,
          "internalType": "uint256",
          "name": "amount",
          "type": "uint256"
        }
      ],
      "name": "RefundIssued",
      "type": "event"
    },
    {
      "inputs": [
        {
          "internalType": "address",
          "name": "",
          "type": "address"
        }
      ],
      "name": "contributions",
      "outputs": [
        {
          "internalType": "uint256",
          "name": "",
          "type": "uint256"
        }
      ],
      "stateMutability": "view",
      "type": "function"
    },
    {
      "inputs": [],
      "name": "deadline",
      "outputs": [
        {
          "internalType": "uint256",
          "name": "",
          "type": "uint256"
        }
      ],
      "stateMutability": "view",
      "type": "function"
    },
    {
      "inputs": [],
      "name": "goal",
      "outputs": [
        {
          "internalType": "uint256",
          "name": "",
          "type": "uint256"
        }
      ],
      "stateMutability": "view",
      "type": "function"
    },
    {
      "inputs": [],
      "name": "owner",
      "outputs": [
        {
          "internalType": "address",
          "name": "",
          "type": "address"
        }
      ],
      "stateMutability": "view",
      "type": "function"
    },
    {
      "inputs": [],
      "name": "totalFunds",
      "outputs": [
        {
          "internalType": "uint256",
          "name": "",
          "type": "uint256"
        }
      ],
      "stateMutability": "view",
      "type": "function"
    },
    {
      "inputs": [],
      "name": "donate",
      "outputs": [],
      "stateMutability": "payable",
      "type": "function"
    },
    {
      "inputs": [],
      "name": "withdrawFunds",
      "outputs": [],
      "stateMutability": "nonpayable",
      "type": "function"
    },
    {
      "inputs": [],
      "name": "claimRefund",
      "outputs": [],
      "stateMutability": "nonpayable",
      "type": "function"
    },
    {
      "inputs": [],
      "name": "getTimeLeft",
      "outputs": [
        {
          "internalType": "uint256",
          "name": "",
          "type": "uint256"
        }
      ],
      "stateMutability": "view",
      "type": "function"
    }
  ],
  "bytecode": "0x608060405234801562000010575f80fd5b5060405162000e4738038062000e478339818101604052810190620000369190620000e4565b335f806101000a81548173ffffffffffffffffffffffffffffffffffffffff021916908373ffffffffffffffffffffffffffffffffffffffff1602179055508160018190555062015180816200008d919062000156565b426200009a9190620001a0565b6002819055505050620001da565b5f80fd5b5f819050919050565b620000c081620000ac565b8114620000cb575f80fd5b50565b5f81519050620000de81620000b5565b92915050565b5f8060408385031215620000fd57620000fc620000a8565b5b5f6200010c85828601620000ce565b92505060206200011f85828601620000ce565b9150509250929050565b7f4e487b71000000000000000000000000000000000000000000000000000000005f52601160045260245ffd5b5f6200016282620000ac565b91506200016f83620000ac565b92508282026200017f81620000ac565b9150828204841483151762000199576200019862000129565b5b5092915050565b5f620001ac82620000ac565b9150620001b983620000ac565b9250828201905080821115620001d457620001d362000129565b5b92915050565b610c5f80620001e85f395ff3fe608060405260043610610085575f3560e01c80638da5cb5b116100585780638da5cb5b1461012f578063968ed60014610159578063b5545a3c14610183578063c7e284b814610199578063ed88c68e146101c357610085565b806324600fc31461008957806329dcb0cf1461009f57806340193883146100c957806342e94c90146100f3575b5f80fd5b348015610094575f80fd5b5061009d6101cd565b005b3480156100aa575f80fd5b506100b36103c5565b6040516100c09190610772565b60405180910390f35b3480156100d4575f80fd5b506100dd6103cb565b6040516100ea9190610772565b60405180910390f35b3480156100fe575f80fd5b50610119600480360381019061011491906107e9565b6103d1565b6040516101269190610772565b60405180910390f35b34801561013a575f80fd5b506101436103e6565b6040516101509190610823565b60405180910390f35b348015610164575f80fd5b5061016d610409565b60405161017a9190610772565b60405180910390f35b34801561018e575f80fd5b5061019761040f565b005b3480156101a4575f80fd5b506101ad6105f3565b6040516101ba9190610772565b60405180910390f35b6101cb610619565b005b5f8054906101000a900473ffffffffffffffffffffffffffffffffffffffff1673ffffffffffffffffffffffffffffffffffffffff163373ffffffffffffffffffffffffffffffffffffffff161461025a576040517f08c379a0000000000000000000000000000000000000000000000000000000008152600401610251906108bc565b60405180910390fd5b60015460035410156102a1576040517f08c379a000000000000000000000000000000000000000000000000000000000815260040161029890610924565b60405180910390fd5b60025442116102e5576040517f08c379a00000000000000000000000000000000000000000000000000000000081526004016102dc9061098c565b60405180910390fd5b5f60035490505f6003819055505f8054906101000a900473ffffffffffffffffffffffffffffffffffffffff1673ffffffffffffffffffffffffffffffffffffffff166108fc8290811502906040515f60405180830381858888f19350505050158015610354573d5f803e3d5ffd5b505f8054906101000a900473ffffffffffffffffffffffffffffffffffffffff1673ffffffffffffffffffffffffffffffffffffffff167feaff4b37086828766ad3268786972c0cd24259d4c87a80f9d3963a3c3d999b0d826040516103ba9190610772565b60405180910390a250565b60025481565b60015481565b6004602052805f5260405f205f915090505481565b5f8054906101000a900473ffffffffffffffffffffffffffffffffffffffff1681565b60035481565b6002544211610453576040517f08c379a000000000000000000000000000000000000000000000000000000000815260040161044a9061098c565b60405180910390fd5b60015460035410610499576040517f08c379a000000000000000000000000000000000000000000000000000000000815260040161049090610a1a565b60405180910390fd5b5f60045f3373ffffffffffffffffffffffffffffffffffffffff1673ffffffffffffffffffffffffffffffffffffffff1681526020019081526020015f205490505f811161051c576040517f08c379a000000000000000000000000000000000000000000000000000000000815260040161051390610a82565b60405180910390fd5b5f60045f3373ffffffffffffffffffffffffffffffffffffffff1673ffffffffffffffffffffffffffffffffffffffff1681526020019081526020015f20819055503373ffffffffffffffffffffffffffffffffffffffff166108fc8290811502906040515f60405180830381858888f193505050501580156105a1573d5f803e3d5ffd5b503373ffffffffffffffffffffffffffffffffffffffff167fa171b6942063c6f2800ce40a780edce37baa2b618571b11eedd1e69e626e7d76826040516105e89190610772565b60405180910390a250565b5f6002544210610605575f9050610616565b426002546106139190610acd565b90505b90565b600254421061065d576040517f08c379a000000000000000000000000000000000000000000000000000000000815260040161065490610b4a565b60405180910390fd5b5f341161069f576040517f08c379a000000000000000000000000000000000000000000000000000000000815260040161069690610bd8565b60405180910390fd5b3460045f3373ffffffffffffffffffffffffffffffffffffffff1673ffffffffffffffffffffffffffffffffffffffff1681526020019081526020015f205f8282546106eb9190610bf6565b925050819055503460035f8282546107039190610bf6565b925050819055503373ffffffffffffffffffffffffffffffffffffffff167f264f630d9efa0d07053a31163641d9fcc0adafc9d9e76f1c37c2ce3a558d2c52346040516107509190610772565b60405180910390a2565b5f819050919050565b61076c8161075a565b82525050565b5f6020820190506107855f830184610763565b92915050565b5f80fd5b5f73ffffffffffffffffffffffffffffffffffffffff82169050919050565b5f6107b88261078f565b9050919050565b6107c8816107ae565b81146107d2575f80fd5b50565b5f813590506107e3816107bf565b92915050565b5f602082840312156107fe576107fd61078b565b5b5f61080b848285016107d5565b91505092915050565b61081d816107ae565b82525050565b5f6020820190506108365f830184610814565b92915050565b5f82825260208201905092915050565b7f4f6e6c79206f776e65722063616e20706572666f726d207468697320616374695f8201527f6f6e000000000000000000000000000000000000000000000000000000000000602082015250565b5f6108a660228361083c565b91506108b18261084c565b604082019050919050565b5f6020820190508181035f8301526108d38161089a565b9050919050565b7f46756e64696e6720676f616c206e6f74207265616368656400000000000000005f82015250565b5f61090e60188361083c565b9150610919826108da565b602082019050919050565b5f6020820190508181035f83015261093b81610902565b9050919050565b7f43616d706169676e206973207374696c6c2072756e6e696e67000000000000005f82015250565b5f61097660198361083c565b915061098182610942565b602082019050919050565b5f6020820190508181035f8301526109a38161096a565b9050919050565b7f46756e64696e6720676f616c2077617320726561636865642c206e6f207265665f8201527f756e647300000000000000000000000000000000000000000000000000000000602082015250565b5f610a0460248361083c565b9150610a0f826109aa565b604082019050919050565b5f6020820190508181035f830152610a31816109f8565b9050919050565b7f4e6f20646f6e6174696f6e20666f756e640000000000000000000000000000005f82015250565b5f610a6c60118361083c565b9150610a7782610a38565b602082019050919050565b5f6020820190508181035f830152610a9981610a60565b9050919050565b7f4e487b71000000000000000000000000000000000000000000000000000000005f52601160045260245ffd5b5f610ad78261075a565b9150610ae28361075a565b9250828203905081811115610afa57610af9610aa0565b5b92915050565b7f43616d706169676e2068617320656e64656400000000000000000000000000005f82015250565b5f610b3460128361083c565b9150610b3f82610b00565b602082019050919050565b5f6020820190508181035f830152610b6181610b28565b9050919050565b7f446f6e6174696f6e206d7573742062652067726561746572207468616e207a655f8201527f726f000000000000000000000000000000000000000000000000000000000000602082015250565b5f610bc260228361083c565b9150610bcd82610b68565b604082019050919050565b5f6020820190508181035f830152610bef81610bb6565b9050919050565b5f610c008261075a565b9150610c0b8361075a565b9250828201905080821115610c2357610c22610aa0565b5b9291505056fea26469706673582212203efc6511bc009902295b3c17560ccd0b123f48de9fb521ee5681828e0faa445964736f6c63430008150033",
  "immutableReferences": {},
  "source": "// SPDX-License-Identifier: MIT\npragma solidity ^0.8.19;\n\ncontract Crowdfunding {\n    address public owner;\n    uint256 public goal;\n    uint256 public deadline;\n    uint256 public totalFunds;\n    mapping(address => uint256) public contributions;\n\n    event DonationReceived(address indexed donor, uint256 amount);\n    event FundsWithdrawn(address indexed owner, uint256 amount);\n    event RefundIssued(address indexed donor, uint256 amount);\n\n    modifier onlyOwner() {\n        require(msg.sender == owner, \"Only owner can perform this action\");\n        _;\n    }\n\n    modifier campaignActive() {\n        require(block.timestamp < deadline, \"Campaign has ended\");\n        _;\n    }\n\n    constructor(uint256 _goal, uint256 _durationInDays) {\n        owner = msg.sender;\n        goal = _goal;\n        deadline = block.timestamp + (_durationInDays * 1 days);\n    }\n\n    function donate() external payable campaignActive {\n        require(msg.value > 0, \"Donation must be greater than zero\");\n        \n        contributions[msg.sender] += msg.value;\n        totalFunds += msg.value;\n\n        emit DonationReceived(msg.sender, msg.value);\n    }\n\n    function withdrawFunds() external onlyOwner {\n        require(totalFunds >= goal, \"Funding goal not reached\");\n        require(block.timestamp > deadline, \"Campaign is still running\");\n\n        uint256 amount = totalFunds;\n        totalFunds = 0;\n        payable(owner).transfer(amount);\n\n        emit FundsWithdrawn(owner, amount);\n    }\n\n    function claimRefund() external {\n        require(block.timestamp > deadline, \"Campaign is still running\");\n        require(totalFunds < goal, \"Funding goal was reached, no refunds\");\n\n        uint256 donatedAmount = contributions[msg.sender];\n        require(donatedAmount > 0, \"No donation found\");\n\n        contributions[msg.sender] = 0;\n        payable(msg.sender).transfer(donatedAmount);\n\n        emit RefundIssued(msg.sender, donatedAmount);\n    }\n\n    function getTimeLeft() external view returns (uint256) {\n        if (block.timestamp >= deadline) {\n            return 0;\n        }\n        return deadline - block.timestamp;\n    }\n}\n",
  "sourcePath": "/home/arslan/Desktop/b-c project/contracts/demo.sol",
  "compiler": {
    "name": "solc",
    "version": "0.8.21+commit.d9974bed.Emscripten.clang"
  },
  "schemaVersion": "3.4.16",
  "updatedAt": "2025-02-12T11:08:39.460Z",
  "devdoc": {
    "kind": "dev",
    "methods": {},
    "version": 1
  },
  "userdoc": {
    "kind": "user",
    "methods": {},
    "version": 1
  }
}